:020000040000FA
:10000000F00C0020850200008D0200008F0200002D
:100010009102000093020000950200000000000021
:100020000000000000000000000000009702000037
:1000300099020000000000009B020000DF020000A7
:10004000591400001F0400009D380000093E000004
:10005000153E00009F0200009F0200009F0200006A
:100060009F020000BD0300009F020000213E00002F
:100070002D3E00009F020000FD3D00009F02000099
:100080009F020000350300009F0200009F02000055
:100090009F0200009F0200009F020000DFF80CD0CA
:1000A00007F036F900480047C7010000F00C0020B7
:1000B00000B58BB0002001900290039016208DF8BF
:1000C000290002208DF8280025208DF82700002027
:1000D0008DF8260059208DF8250045208DF8240044
:1000E00009A803F042FA4FF0AA305E4908605E4961
:1000F000086026205D49087002204870162088702C
:1001000026205B4908700220487016208870012064
:1001100058490870A120ADF8100040F20640ADF833
:1001200014000120ADF8120001A808900A20ADF8D3
:100130001C0004A805F012FC0BB000BD10B5002097
:1001400003F00FF9012003F0EBF8022003F0E8F8C8
:10015000032003F0E5F84FF4FA7000F07EF9002078
:1001600003F0DEF8012003F0FCF8022003F0D8F8D9
:10017000032003F0D5F84FF4FA7000F06EF9002078
:1001800003F0CEF8012003F0CBF8022003F0E9F8E9
:10019000032003F0C5F84FF4FA7000F05EF9002078
:1001A00003F0BEF8012003F0BBF8022003F0B8F81A
:1001B000032003F0D6F84FF4FA7000F04EF9032054
:1001C00003F0AEF810BD00BF00BF03F0B7FA03F0B4
:1001D0006BF802F0FDFF284800F0B9FD4FF47A718A
:1001E000B0FBF1F4601EB0F1807F01D301201BE071
:1001F000601E4FF0E021486148170721002807DA08
:100200004A07150E1D4A00F00F031B1FD55403E0CB
:100210004A07130E1A4A135400BF00204FF0E02182
:10022000886107200861002008B100BFFEE7FFF7E2
:1002300085FF16E003F0FAFA06F066F906F099F980
:1002400004F04DFF05F0C3FF022807DA04F008FCB4
:10025000022803DA012001F0B7FC02E0642000F07C
:10026000FCF8E7E700000020040000200800002060
:100270000B000020CC0000202000040018ED00E05E
:1002800000E400E00648804706480047FEE7FEE736
:10029000FEE7FEE7FEE7FEE7FEE7FEE7FEE7FEE736
:1002A000910500009D00000010B50446052C00DCFF
:1002B00004E040F2312172A000F09AF904EBC4008E
:1002C000754901EB8000C06980B210BD73480068B9
:1002D00020B172480068401C70490860704710B532
:1002E0006F480068401C6E490860012003F0BFFDA4
:1002F000022003F0BCFD032003F0B9FD05F0DAF99C
:1003000003F05BF804F0F2FBFFF7E0FF05F062FF9B
:10031000634800684FF47A71B0FBF1F201FB120000
:1003200020B960480068401C5E49086010BD5E4806
:10033000006870471CB502205C49886100BF5A48BC
:100340000068401C58490860684603F06EF99DF843
:10035000020048B99DF80100582805D105F037FF83
:1003600010B9012005F030FF9DF8020050B99DF84A
:100370000100592806D105F02AFF012802D10220E8
:1003800005F022FF9DF8020048B99DF801005928A8
:1003900005D104F065FB10B9012004F05EFB9DF867
:1003A0000200012809D19DF8010030B904F058FB82
:1003B000012802D1022004F050FB1CBD10B500BF83
:1003C0003B48006800F40050B0F5005F26D14FF4C0
:1003D000005000F051F80020FFF766FF00F40050D5
:1003E000B0F5005F02D101202C4908600020FFF722
:1003F0005BFF00F4005088B928480068B0F5FA7F28
:1004000003D902202B49087005E02448006810B188
:1004100001202849087000202049086010BD10B54F
:10042000402000F029F84FF4807000F025F810BD4E
:1004300008B520480078009000201E4908709DF8FB
:10044000000008BD174800687047154800687047ED
:1004500001201949886100BF7047114A116800BF27
:100460000F4A1268521A8242FAD3704700B5034607
:100470001846FFF7F2FF00BD0D49083108607047CC
:100480002E2E5C656D6C69625C696E635C656D5F88
:100490006770696F2E680000006000401C0000203B
:1004A0001000002014000020380000200000084048
:1004B0001461004018000020000001403F49C96A53
:1004C00001F47051B1F5006F0BD0B1F5805F05D02C
:1004D000B1F5005F08D13A4908683BE04FF40040AD
:1004E00038E03849086835E03449C96801F4E0610A
:1004F000B1F5407F12D007DCF1B1B1F5807F11D0AA
:10050000B1F5007F22D10BE0B1F5806F04D0B1F5D9
:10051000A06F1BD12C481BE02C4819E02C4817E099
:100520002C4815E000BF2C490968090E132901DB8E
:100530002A4800E02A480BE000BF27490968090E55
:10054000132901DB274800E0274801E0002000BF15
:1005500000BF00BF00BF704700B5FFF7AFFF024606
:100560001648406800F00F00C24020480260104664
:1005700000BD14480068704700B503461148036089
:100580000E48C06A00F4006008B1FFF7E5FF00BD47
:1005900070474FF4004070474FF47A707047084836
:1005A0000068704700B50346054803600348C06A09
:1005B00000F4005008B1FFF7CFFF00BD00800C40F1
:1005C0002400002020000020003FAB01406F4001CC
:1005D000809FD500C0D8A700FC81E00F40B5640023
:1005E000C0CF6A00804F120040420F002800002058
:1005F00000BFFEE730B54FF0844505EB401404EB37
:1006000081031A6030BD30B50146FC4CE46B0CB17F
:10061000012400E00024234641F67134F74DEC63D9
:100620002C46646804F0070212B1012A03D100E0ED
:1006300000BF002001E0012000BF00BFF04CA1423C
:1006400008D86410A14205D908B1032400E00124B0
:10065000224604E008B1022400E000242246E74CD0
:10066000646824F007041443E44D6C600BB100246B
:10067000EC6330BD10B5E24C2046FFF7C4FF10BD5F
:1006800070B504461CB1B4F5004F00D804E040F248
:100690000F11DCA0FFF7ACFFB4FA84F0C0F11F0526
:1006A000284670BDDD49496901F4E061B1F5407F3C
:1006B0000FD007DC99B1B1F5807F0ED0B1F5007F86
:1006C00013D108E0B1F5C06F0DD0B1F5E06F0CD1DA
:1006D00007E0D3480BE0D34809E0D34807E0D3480C
:1006E00005E0D34803E0D34801E0002000BF00BF8D
:1006F00070472DE9F041044601254FF4705704F08E
:100700000F06012E06D0022E1AD0032E33D0042E4F
:100710005CD14BE0C148C06A3840B0F5006F09D0E9
:10072000B0F5805F04D0B0F5005F05D1022505E08B
:10073000032503E0042501E0052500BF00BF4CE0D0
:10074000B648806A00F00300012804D0022804D0D3
:10075000032806D103E003250BE0022509E0062566
:1007600007E0AE48806A00F4803008B1092500E057
:1007700000BF00BF31E0A948806A00F00C000428E7
:1007800004D0082804D00C2806D103E003250BE090
:10079000022509E0062507E0A048806A00F48010E1
:1007A00008B1092500E000BF00BF16E007259B48FF
:1007B000006800F0805018B1B0F1805F04D101E012
:1007C000072501E0082500BF00BF06E040F2D15137
:1007D0008CA0FFF70DFF002500BF00BF2846BDE835
:1007E000F08170B59448FFF784FF0546072D05D0CA
:1007F000082D07D1FFF762FE04460AE0FFF752FF1B
:10080000044606E04FF4CB717EA0FFF7F1FE002412
:1008100000BF00BF204670BD70B505460DB1012D6B
:1008200000D104E040F2AD1176A0FFF7E1FE7B4875
:10083000806A6900C84000F0030090B1012804D02C
:10084000022806D0032819D107E0FFF7A2FE0446CC
:1008500016E0FFF7A4FE044612E0FFF77DFE440811
:100860000EE06E48806A102101EB8501C84018B186
:10087000FFF792FE044600E0002401E0002400BFE0
:1008800000BF204670BD70B504460D46B4F5801F0C
:1008900000D204E040F217215AA0FFF7A9FE052D6F
:1008A00018D2DFE805F003070B0F130001205B49A6
:1008B000886116E003205949886112E000205749F9
:1008C00088610EE00220554988610AE004205349FE
:1008D000886106E040F231214AA0FFF789FE00203E
:1008E00070BD00BF4D48C46108204C49486200BF3C
:1008F0004A48C06A00F480400028F9D14748C069DE
:10090000EEE72DE9F04105460F461646434880695B
:1009100020F03F04B5F5801F00D204E040F26521CD
:1009200038A0FFF765FE052F13D2DFE807F00306B6
:10093000090C0F0044F0100411E044F020040EE014
:1009400044F008040BE044F0180408E044F02804E4
:1009500005E040F27F212BA0FFF74AFE00BF00BF59
:100960002E48C561052E12D2DFE806F00306090BFA
:100970000E0044F0010410E044F003040DE000BF59
:100980000BE044F0020408E044F0040405E040F207
:100990009E211CA0FFF72CFE00BF00BF1F488461F2
:1009A000BDE8F08170B50446C4F30316012E06D0ED
:1009B000022E0DD0032E14D0042E74D174E01748EB
:1009C000806800F00F05284600F0C8FC054689E065
:1009D0001248406800F00F05284600F0BFFC0546AD
:1009E00080E01648204458B3B0F5043F32D0B0F54B
:1009F0007B3F38D0B0F5FE2F4BD141E000000C40DA
:100A00000048E8012E2E5C656D6C69625C73726350
:100A10005C656D5F636D752E6300000000800C40A7
:100A200040420F00C0CF6A00C0D8A700809FD50009
:100A3000406F4001003FAB0104001800D0EBF7FF0E
:100A4000FFE7F948806EC0F30315284600F086FCE6
:100A5000054626E0F448806EC0F30325284600F0E2
:100A60007DFC05461DE01020FFF70AFEEE49896E69
:100A7000C1F301314518284600F070FC054610E02E
:100A8000E948806E00F00305284600F067FC054643
:100A900007E04FF43D71AFF29400FFF7A9FD012587
:100AA00000BF00BF1EE015E0E048204440B9DE482A
:100AB000006F00F00305284600F050FC054607E0F3
:100AC00040F20E31AFF2C400FFF792FD012500BFE6
:100AD00000BF07E040F21531AFF2D800FFF788FD04
:100AE000012500BF00BF284670BD2DE9F041054635
:100AF0000C46C5F30316012E06D0022E1BD0032E82
:100B000037D0042E76D1B6E01CB1B4F5007F00D802
:100B100005E04FF45471AFF21410FFF769FD204661
:100B2000FFF7AEFD0446C048806820F00F00204368
:100B3000BD498860CAE0B4F5007F00D805E04FF4F5
:100B40005671AFF24010FFF753FDFFF793FD2046BB
:100B5000FFF796FD0446B448406820F00F0020439C
:100B6000B1494860FFF7F8FC07463846FFF74BFDF0
:100B7000ACE0AF48284448B1B0F5043F20D0B0F510
:100B80007B3F38D0B0F5FE2F6CD153E0B4F5004F69
:100B900000D805E040F28631AFF29810FFF728FD4B
:100BA000042000F0DFFB2046FFF76AFD04469E4864
:100BB000806E20F0F00040EA04109B49886658E0FF
:100BC000B4F5004F00D805E04FF46571AFF2CC10DA
:100BD000FFF70EFD042000F0C5FB2046FFF750FD97
:100BE00004469148806E20F4706040EA04208E49EB
:100BF00088663EE063E0102C02D3802C00D805E02C
:100C000040F2A331AFF20420FFF7F2FC042000F021
:100C1000A9FB2046FFF734FD04461020FFF730FD06
:100C2000201A8149896E21F4405141EA00307E4901
:100C300088661EE0082C00D805E040F2B231AFF221
:100C40003C20FFF7D5FC042000F08CFB2046FFF78A
:100C500017FD04467448806E20F00300204372495B
:100C6000886606E04FF47071AFF26820FFF7C0FCB1
:100C700000BF00BF2AE06D482844B8B9082C00D84E
:100C800005E040F2CA31AFF28420FFF7B1FC40200A
:100C900000F068FB2046FFF7F3FC04466248006F53
:100CA00020F0030020436049086706E040F2E73186
:100CB000AFF2B020FFF79CFC00BF00BF06E040F29F
:100CC000ED31AFF2C020FFF793FC00BF00BFBDE8DD
:100CD000F0812DE9F04105460E464FF00008C5F3BE
:100CE000032007281BD2DFE800F01A04070A0D12C0
:100CF00017004D4C08341AE04B4C443417E04A4C72
:100D0000403414E0484C58344FF001080FE0464C92
:100D100060344FF010080AE0434C783407E040F2AA
:100D20004741AFF22030FFF763FCBDE8F08100BF20
:100D3000C5F30437B8F1000F02D0404600F012FBB3
:100D4000324639462046FFF755FC00BFEDE770B547
:100D5000054605F47810C0F3100100297CD1401439
:100D60000E2879D2DFE800F0070B14181D27313F59
:100D7000505A66787074FFF7A1FB044674E0FFF7E1
:100D80009DFB04462848806800F00F00C4406BE0DB
:100D9000FFF7E2FB044667E00020FFF73DFD044655
:100DA00062E00020FFF738FD04461F48806EC0F364
:100DB0000310C44058E00020FFF72EFD04461A48F7
:100DC000806EC0F30320C4404EE00020FFF724FDF6
:100DD00004461020FFF754FC1349896EC1F301311A
:100DE0000844C44040E00020FFF716FD04460E48CA
:100DF000806EC0F30130C4400B48C06F00F00700A4
:100E0000401CB4FBF0F42FE00020FFF705FD044682
:100E10000548806E00F00300C44025E00120FFF784
:100E2000FBFC044620E017E000800C40C0FAEBFF1A
:100E3000D0EBF7FF0120FFF7EFFC0446FA48006F04
:100E400000F00300C4400FE0FFF7CBFC04460BE0CA
:100E5000FFF728FC044607E040F2F141AFF25C40A6
:100E6000FFF7C6FB002400BF00BF204670BD2DE980
:100E7000F047074688469146062F1BD2DFE807F069
:100E8000130F07030B1801250226022419E004257D
:100E90000826082415E010252026202411E04025EE
:100EA000802680240DE04FF480756E006C0008E011
:100EB000BDE8F08740F6F601AFF2B840FFF798FBC7
:100EC000F6E700BFB8F1000F0BD0D7480562B9F1C3
:100ED000000F08D000BFD448C06A20400028FAD0D4
:100EE00001E0D148066200F000FF00BFE0E72DE915
:100EF000F05F06460D464FF00309CA464FF0000862
:100F000006F00F07012F06D0022F43D0032F42D047
:100F1000042F79D184E0A81E08281FD2DFE800F052
:100F200004090E121E1E1E174FF004094FF0000A8E
:100F30001CE04FF003094FF0010A17E04FF00209DF
:100F4000CA4613E04FF001094FF0030A0EE040F2E9
:100F50004661AFF25050FFF74BFB07E040F24B61A8
:100F6000AFF26050FFF744FBBDE8F09F00BF0122E5
:100F700011465046FFF77BFFFFF77CFBAA48C0F8FD
:100F8000249000F0B2FEFFF7E7FA83465846FFF7D9
:100F90003AFB68E000BF0A2D22D2DFE805F0210508
:100FA000070E21211521211D002420E001221146D8
:100FB0000020FFF75CFF022419E0012211461046D1
:100FC000FFF755FF012412E001220221964840302C
:100FD000FFF710FB03240AE000244FF0010806E0AD
:100FE00040F29661AFF2E450FFF702FBBCE700BFAE
:100FF000022F0AD18C48806A8C490840204340EA7D
:101000000840894988620AE026E08748806A884962
:10101000084040EA840040EA08508349886222E0A0
:10102000072D02D0082D0ED106E07F48006820F081
:1010300080507D4908600DE07B48006840F080509A
:101040007949086006E040F2E161AFF24860FFF7DD
:10105000CFFA89E700BF06E040F22971AFF25C6089
:10106000FFF7C6FA00BF00BF00BF7DE740B100BF79
:101070006D49096D0029FBD101216B4A516502E0E0
:101080000021694A5165704767484069C0F30220F2
:10109000704770B50546082D22D2DFE805F0120D25
:1010A000080421211B1663480068C4B21FE0614890
:1010B0000068C0F307241AE05E480068C0F30744E4
:1010C00015E05C480068040E11E05A48001D0068F5
:1010D000C4B20CE05748001D0068C0F3072406E0C6
:1010E00040F2A171AFF2E460FFF782FA70BD00BF79
:1010F0004D4840696FF30A0040EA052020434A4901
:10110000486100BFF2E74848C068C0F3022070475A
:101110002DE9F0410546062D25D2DFE805F003084C
:101120000E14191E434808300068C4B223E0414839
:1011300008300068C0F307241DE03E48083000680E
:10114000C0F3074417E03B4808300068040E12E083
:1011500038480C300068C4B20DE036480C300068E6
:10116000C0F3072407E04FF40361AFF26870FFF7A4
:101170003FFABDE8F08100BF0120FFF7BAFA06464A
:10118000052E01D1FFF776FA2748C0686FF30A00F1
:1011900040EA052020432449C860052E05D1FFF709
:1011A000DBF907463846FFF72EFA00BFE1E71E4895
:1011B000C068C0F30430704710B504461F2C00D837
:1011C00005E040F66E01AFF2C470FFF711FA04F0CB
:1011D0001F041548C06820F4F83040EA0430124972
:1011E000C86010BD1048C06F00F00700704710B510
:1011F0000446802C00D805E040F69701AFF2FC7061
:10120000FFF7F6F90848806D00F0080000B110BD46
:1012100000BF04F007040448C06F20F0070020431B
:101220000149C86700BFF2E700800C40FCFFFEFFE9
:10123000F3FFEFFFD481E00F70B50546012D04D018
:10124000032D07D0042D0DD108E04D48006900F0B2
:101250007F040FE04A48C068C4B20BE048484069C8
:10126000C4B207E040F63211AFF66800FFF7C0F9EC
:10127000002400BF00BF204670BD70B505460C4677
:10128000012D04D0032D15D0042D38D124E07F2C5E
:1012900000D805E040F65211AFF69800FFF7A8F924
:1012A00004F07F043648006920F07F002043344971
:1012B00008612BE0FF2C00D805E040F65A11AFF68C
:1012C000BC00FFF795F9E4B22D48C06820F0FF009C
:1012D00020432B49C86019E0FF2C00D805E040F6F8
:1012E0006211AFF6E000FFF783F900BFE4B22448D3
:1012F000406920F0FF0020432149486106E040F6A4
:101300006A11AFF60010FFF773F900BF00BF70BDA0
:10131000024622B91A4B9B6F03F0020101E0002143
:1013200000BF00BF09B1012000E00020704770B588
:1013300004460D46002604B905E040F6B411AFF6A8
:101340003C10FFF755F905B10126012000EB4401DF
:1013500032460B487830FFF74DF970BD0146012049
:10136000884070470649496D01F0010101B170479D
:1013700000BF0349096D01400029FAD100BFF6E71B
:1013800000800C4030B54FF0844505EB401404EB71
:1013900081031A6030BD2DE9FF4F0446894615468A
:1013A000DDE90E7C0D9EDFF890B4DBF808B00BEBA6
:1013B000041A0DB1504605E0DFF87CB4DBF80CB040
:1013C0000BEB0410DAF80C3003B11D7267B1D0F8E2
:1013D00008B0CBF38161032901D1076004E00CFA66
:1013E00001FBBB44C0F800B066B1D0F808B04FEACA
:1013F0009B71032901D1466004E00CFA01FBB34460
:10140000C0F804B04FF0010B0BFA04F2DDF80CB099
:10141000BBF1000F04D0DFF820B4CBF8182003E0B4
:10142000DFF814B4CBF81C2025B1DFF80CB4CBF8EE
:10143000342003E0DFF800B4CBF83020D0F808B057
:1014400043F6F77E2BEA0E0848EA0C1848EA09082A
:10145000C0F80880BDE8FF8F2DE9F84FF74806680F
:10146000C068064006F0004008B100BFFEE7F24841
:10147000D0F8388006EA08074FF000092DE0002573
:1014800025E007F0010000B3EB48D0F808B00120D8
:10149000A8400090E949009888600BEB0510C468EB
:1014A00094B194F808A0207A80F00100207220689E
:1014B00050B16268BAF1000F01D0012000E00020B5
:1014C000014628462368984700BF7F086D1C002FFF
:1014D000D7D126EA080709F10109B9F1020FCEDBDD
:1014E000BDE8F88F2DE9FE4304460E4617469846A0
:1014F000DDF82890082C00D204E04FF4C871D0A089
:10150000FFF776F8B9F5806F00D204E040F2911150
:10151000CBA0FFF76DF800233246022120468DE86C
:101520008003FFF738FF012000FA04F5C248856206
:101530004561BDE8FE832DE9FE4304460D4616468F
:101540001F46DDE90A98082C00D204E04FF4E77149
:10155000BBA0FFF74DF8B8F5806F00D204E040F271
:10156000CF11B7A0FFF744F833462A4601212046A1
:10157000CDE901980097FFF70EFF0120A040AE498A
:101580008862BDE8FE832DE9FE4F04460D461646EF
:101590001F46DDE90DABDDF83C90DDF83080082C0E
:1015A00000D204E04FF40671A5A0FFF721F8B8F5CA
:1015B000806F00D204E040F21921A1A0FFF718F8D3
:1015C000B9F5806F00D204E040F21A219CA0FFF729
:1015D0000FF82B46002203212046CDE900ABCDF8C1
:1015E0000890FFF7D8FE2B460122032120468DE804
:1015F000C001FFF7D0FE0120A0408F498862BDE8FE
:10160000FE8F2DE9F05F07468B4615461C46082FD6
:1016100000D204E040F25F2189A0FEF7E9FF05B1A6
:1016200004E04FF4187186A0FEF7E2FF1CB1B4F598
:10163000807F00D804E040F2612181A0FEF7D8FF4E
:101640007D48806800EB071805EB0410001FC8F800
:1016500000007948C06800EB07100C30C8F804009F
:10166000A86800F0070626F00106042E01D0062E19
:1016700000D104E04FF41E7171A0FEF7B9FF601EA7
:1016800005EB0010806820F00701601E05EB0010DC
:101690008160042E0AD1601E05EB0010806840F0C6
:1016A0000201601E05EB0010816009E0601E05EB81
:1016B0000010806840F00101601E05EB00108160A1
:1016C000D8F80CA0BAF1000F02D000208AF8080068
:1016D000A86800F4E01040F02A4040F400400121E6
:1016E000C1EB840140EA01100BF0010140EAC100A6
:1016F0003043C8F80800012000FA07F94E48C0F846
:101700003490C0F82890042E01D1C0F81490BDE8A0
:10171000F09F70B504460D46082C00D204E040F25C
:10172000C62147A0FEF764FF05B104E040F2C721DF
:1017300043A0FEF75DFF4048866806EB0411A868E9
:10174000C860287820B10120A0403B49886303E0AD
:101750000120A0403849C8633F48696840F8241018
:10176000687850B10120A0403449886001222146A8
:1017700032480C30FFF706FE05E0002221462F48D4
:101780000C30FFF7FFFD70BD2DE9F04106460F4616
:101790001446082E00D204E040F2133128A0FEF7D0
:1017A00027FF04B104E04FF4457125A0FEF720FFA8
:1017B00017B12148856801E01F48C56805EB06158B
:1017C00020788007A17840EA0170617840EA816062
:1017D000A17840EA0160217940EA8140E17840EA5D
:1017E0008130A860BDE8F0812DE9F04105460F4643
:1017F000144605B104E040F28E3111A0FEF7F8FE68
:1018000004B104E040F28F310DA0FEF7F1FE05EBCC
:101810000715607A032802D12068286005E0A089B6
:10182000617A8840216808442860207A032815D10D
:101830006068686018E0000000200C4000300C4038
:101840002E2E5C656D6C69625C7372635C656D5FA6
:10185000646D612E6300000000310C40A089217A84
:1018600088406168084468600020E860E07B08B157
:10187000072600E00526207A8007A17A40EA017059
:10188000617A40EA8160A17A40EA0160A17B40EA86
:101890008140E17A40EA8130A18940EA0110304379
:1018A000A860BDE8F08170B504460D46082C00D252
:1018B00005E040F2D531AFF27800FEF799FE25B190
:1018C0000120A0406B49886203E00120A0406949E3
:1018D000C86270BD10B50446082C00D205E040F285
:1018E000F231AFF2A400FEF783FE6248806AE04066
:1018F00000F0010010BD10B50020012282405E4BB7
:10190000440943F8242000BF5A4A5060FF20D061A8
:101910005062D0625063D0630120D0640020574AE7
:10192000D06057489060002104E00022554840F8FC
:101930002120491C0829F8DB10BD10B5044604B16C
:1019400005E040F20B41AFF20810FEF751FE20799E
:1019500000B905E040F21141AFF21C10FEF748FE5D
:1019600001214948FFF7B5F9FFF7C5FF0020012124
:101970008140464A430942F8231000BF00BF0121BD
:1019800081404209920002F1E022C2F8001100BF3A
:101990004FF000403949C860364960688860207857
:1019A000012101EB40103349486010BD2DE9FF4F84
:1019B00081B005461F46DDE90E98082D00D205E0EE
:1019C00040F26441AFF28810FEF712FEB8F5806F66
:1019D00000D205E040F26541AFF29C10FEF708FE30
:1019E000109810B14FF0010A01E04FF0030A02987D
:1019F00020B12048806800EB051403E01D48C06852
:101A000000EB0514B9F1000F0BD0A068C0F381669C
:101A1000032E02D1C4F8009003E008FA06F048440F
:101A200020604FB1A068860F032E01D1676003E0EC
:101A300008FA06F038446060012000FA05FB0398BC
:101A400018B10C48C0F818B002E00A48C0F81CB041
:101A5000A06843F6F77188430090009840EA0810A8
:101A60000090009840EA0A0000900098A06005B03D
:101A7000BDE8F08F00200C4080E100E000300C4019
:101A8000FF00008000310C400013040080E200E001
:101A900010B5A04B1B6803F0010200BF45F60E0312
:101AA0009C4C843CC4F8843000BF00209A4B1B78C7
:101AB00003F001031843984B1B7803F010030BB19C
:101AC000102300E000231843934B1B7803F04003DE
:101AD0000BB1402300E0002318438F4B1B7803F029
:101AE00004030BB1042300E0002318438A4B1B8836
:101AF00003F4807313B14FF4807300E000231843A4
:101B0000844B843B18624FF47051834B1B680B402D
:101B1000B3F5006F20D0B3F5805F03D0B3F5005F5D
:101B200027D10CE000BF7B4B843BDB6A03F08003D2
:101B3000002BF8D00323774C843C63621AE000BF8B
:101B4000744B843BDB6A03F40073002BF8D004234E
:101B5000704C843C63620DE000BF6E4B843BDB6ADB
:101B600003F00803002BF8D002236A4C843C636224
:101B700000E000BF00BF684B1B7803F001031BB9F6
:101B80000223644C843C23622AB100BF0023614CD1
:101B9000236000BF00BF10BD604800688006810C54
:101BA0005E4808300068C0F3031041EA00115B484A
:101BB0000C300068C0F303100143B1F5817F01DCF4
:101BC000012070470020FCE77CB50446514884386A
:101BD000C06A514908605248006840F0040050490A
:101BE0000860FFF7D9FF05464DB14E4800684E49E1
:101BF000084000904FF0E0210098C1F8800130BF0C
:101C000015B148490098086014B1FFF741FF09E099
:101C10004148008800F4806020B900BFFEF79CFCBA
:101C200000BF00BF7CBD7CB505463A488438C06A19
:101C3000394908603748006800F0010600BF45F6E2
:101C40000E0034498439C1F8840000BF4FF420707D
:101C500008622EB100BF00202E49086000BF00BFFF
:101C60002F48006840F004002D490860FFF794FFFA
:101C700004464CB12B4800682B49084000904FF0B7
:101C8000E0210098C1F8800130BF14B125490098C7
:101C9000086015B1FFF7FCFE09E01F48008800F45A
:101CA000806020B900BFFEF757FC00BF00BF7CBDBD
:101CB00010B51E4B1B6823F00C0343F008011B4BAF
:101CC0001B6843F00C0200BF4AF6E853174CA360B0
:101CD00000BF002003E0154B19601A60401C042867
:101CE000F9DB124B196010BD70470A488438C06A8E
:101CF000094908607047017821B10C49096841F031
:101D0000010103E00949096821F00101074A116056
:101D10007047000084800C402C000020E0FF0FE0A2
:101D200010ED00E000E100E0DC1CE4FF00600C408E
:101D300030B54FF0844505EB401404EB81031A6085
:101D400030BD10B50446072C00D203E04E216CA034
:101D5000FEF74EFC7048006820F4407040EA042012
:101D60006E49C1F8200110BD70B504460D46052C22
:101D700002DC032D00DC03E0642161A0FEF738FCE7
:101D800004EBC400654951F8200020F0030028430B
:101D900004EBC401614A42F8210070BD2DE9F0470F
:101DA00005460C4690461F46DDF82090052D02DCC6
:101DB000102C00D203E0972151A0FEF719FC082C4B
:101DC0000ED2554820380068A2000F219140884368
:101DD000A10005FA01F108435049C1F800010FE0E4
:101DE000A4F108064C481C380068B2000F2191404D
:101DF0008843B10005FA01F108434849C1F80401DC
:101E00004246214644481838FFF792FF3A46214699
:101E100041481438FFF78CFF0120A0403E49091FBC
:101E200008604A4621463C481038FFF781FFBDE86C
:101E3000F0872DE9F04105460C4616461F46052D54
:101E400002DC102C00D203E0CC212DA0FEF7D0FB49
:101E50008EB147B10120A04005EBC5012F4A02EB2E
:101E60008101086107E00120A04005EBC5012B4A74
:101E700002EB81014861082C14D205EBC50027490B
:101E800001EB80004068A2000F2191408843A1002F
:101E900006FA01F1084305EBC501204A02EB810176
:101EA000486017E005EBC5001C4901EB8000806825
:101EB000A4F108018A000F2191408843A4F1080190
:101EC000890006FA01F1084305EBC501134A02EB4C
:101ED000810188608EB947B10120A04005EBC501A2
:101EE0000E4A02EB8101086107E00120A04005EBEA
:101EF000C5010A4A02EB81014861BDE8F08100009A
:101F00002E2E5C656D6C69625C7372635C656D5FDF
:101F10006770696F2E630000206100400060004020
:101F200030B54FF0844505EB401404EB81031A6093
:101F300030BD70B50446F748FEF709FF0546206836
:101F4000C0F30120F4490E5C2069401C7043001D61
:101F5000B5FBF0F070BD2DE9F04704460F4615467D
:101F6000984605B103E0DC21ECA0FEF741FB0DB97A
:101F7000BDE8F087206820F440702060206840EAC7
:101F8000082020601FB9E348FEF7E1FE0746E2485B
:101F900010F80890042000FB157109FB05F0B1FB57
:101FA000F0F6206800F0020008B106B90126B6F587
:101FB000007F00D203E0F821D8A0FEF719FB2661CC
:101FC00000BFD5E770B505460C46DA48854200D11A
:101FD00004E04FF48671D1A0FEF70AFB22460021EF
:101FE0002846FFF79DFF70BD70B505460C46D148E9
:101FF000854200D104E04FF48F71C8A0FEF7F8FAD3
:1020000000206863CC482863607808B9012000E0AC
:102010000020024601212846FFF782FF237B284645
:10202000D4E90112FFF797FF227800212846FFF735
:1020300077FF70BD002101600161416181614163F1
:10204000BD49016370472DE9F0410546B948854215
:1020500000D104E04FF4B971B0A0FEF7C9FAB54859
:10206000854201D1B54C03E06FF00300BDE8F0817B
:10207000A66800BFAF6A07F4C06068B107F40070DB
:1020800010B1FD20607004E007F4806008B1FE200C
:1020900060700920207025E12078092875D2DFE8DA
:1020A00000F0051F4D6985A1CEE3FD00B07800F07A
:1020B000100030B13088062101EA102040F0F0080D
:1020C00008E0307800F0FE08B07800F0020008B1B7
:1020D00048F0010801202070C5F82480686001E103
:1020E00007F0800040B180202863FF206070082046
:1020F00020700220686020E007F04000E8B1402036
:102100002863B07800F0100020B1022020703078F1
:10211000686212E0B07800F0020058B10720207029
:102120002179301D00EBC1008088012805D10820ED
:10213000686002E0052020709CE7D3E007F0800093
:1021400040B180202863FF206070082020700220AA
:1021500068600EE007F0400058B140202863B07876
:1021600000F0020010B10320207001E00520207073
:1021700080E7B7E0B07800F0100038B13088062171
:1021800001EA202040F0F00803E0A6E0307800F0FB
:10219000FE08B07800F0040008B148F001080420FF
:1021A000207001206860C5F824809BE007F0800063
:1021B00040B180202863FF2060700820207002203A
:1021C00068600EE007F0400058B140202863B07806
:1021D00000F0040010B10720207002E005202070FC
:1021E00048E77FE061882279301D00EBC2008088DB
:1021F000814218DB002060802079401C2071B0787B
:1022000000F0040010B10320207033E7B07800F034
:10221000010010B92079012804DD08202070022077
:1022200068605FE026E76188481C60802279301D85
:1022300050F83200405C68620620207052E007F0DF
:10224000800040B180202863FF206070082020704B
:102250000220686007E007F0400020B140202863BA
:102260000520207006E73DE007F0200058B32379F1
:10227000321D02EBC3029088EA69D1B262888242C1
:1022800008D263885A1C628094F804C0321D52F848
:102290003C20D154628882420AD300E014E0012835
:1022A00001D108226A600822227002226A6009E0D5
:1022B00004226A60012805D96388421E934201D135
:1022C00008226A6000BF0DE007F4807020B14FF46F
:1022D000807028630920207004E0FB2060700920D2
:1022E000207000BF2078092807D10020686360783B
:1022F000012804D10020607001E00120B6E694F9C5
:102300000100B3E670B504460D460A48844217D171
:102310001CE0000010810200207700002E2E5C657A
:102320006D6C69625C7372635C656D5F6932632EAC
:102330006300000000A00040CFFF010074010020F6
:1023400040F2EB21AFF22C00FEF752F905B105E0A7
:102350004FF43B71AFF23C00FEF74AF91A48844251
:1023600001D11A4E02E06FF0030070BDA06800F0CA
:10237000010008B120206060A87800F0020008B1D8
:10238000288928B1A87800F0040020B1288A10B963
:102390006FF00300E9E7002030700120707000202A
:1023A00070803071B560C0206060A06A00F02000CD
:1023B00000B1E069064820634FF4FC60606320468A
:1023C000FFF741FED1E7000000A0004074010020AB
:1023D000CFFF010070B5024647F6F876314001F5AF
:1023E0008073B2FBF3F5B2FBF3F603FB162428026D
:1023F0002602B6FBF3F6304470BD70B504468E4835
:10240000844201D18D4D05E0E3218DA0FEF7F0F867
:10241000002070BD2846FEF79AFC0646E16830466B
:10242000FFF7D8FFF5E72DE9F04105460E461746C0
:1024300007B104E040F2091181A0FEF7D9F886B98E
:102440007D48854202D1DFF8F48106E040F2351183
:102450007BA0FEF7CDF8BDE8F0814046FEF777FCA3
:1024600006467001B0FBF7F4203CE40047F6F87034
:10247000844200D804E04FF4A17171A0FEF7B8F8CF
:1024800047F6F87004400421284600F0C9F8EC60D3
:1024900000BFE0E770B505460E466748854200D1AB
:1024A00004E040F2671166A0FEF7A2F8F44304F0DE
:1024B0000504640034430221284600F0B1F86C6042
:1024C00070BD31B100BF426C002AFCD10122026410
:1024D00001E000220264704770B505460C4656487C
:1024E000854200D104E040F2CD1155A0FEF780F8FE
:1024F0000221284600F094F80A206860012128464D
:10250000FFF7DFFF286820F01C00217B0843617B78
:102510000843A17B084328602846D4E90112FFF74D
:1025200082FF2078686000212846FFF7CAFF70BD4F
:1025300010B504464048844200D104E04FF4FA71DB
:102540003FA0FEF755F801212046FFF7BAFFEA2029
:10255000606000202060E06020616061A06340F264
:10256000F97060630020E063606500212046FFF79A
:10257000A8FF10BD014600BF886800F020000028B9
:10258000FAD0C869C0B27047014600BF886800F041
:1025900020000028FAD0886980B2704770B50446E0
:1025A0000D4600BFA06800F010000028FAD04021BE
:1025B000204600F035F8A56270BD70B504460D46A2
:1025C00000BFA06800F010000028FAD020212046AB
:1025D00000F026F8656270BD70B504460D46012115
:1025E000204600F01DF825B1206840F4005020601E
:1025F00003E0206820F40050206070BD70B50446F0
:102600000D460121204600F00BF825B1206840F46A
:102610008050206003E0206820F48050206070BD6E
:10262000026C02F0010202B1704700BF426C0A4026
:10263000002AFBD100BFF7E7004008404005140026
:102640002E2E5C656D6C69625C7372635C656D5F98
:102650006C65756172742E630000000070B50546EC
:10266000012D00D803E0772132A0FDF7C1FF15B19D
:10267000012D06D102E03548846804E03348C4687F
:1026800001E0002400BF00BF204670BD70B50446C5
:102690000E46012C03D806F07F4000B903E0A621C6
:1026A00024A0FDF7A5FF14B1012C06D102E0274DAF
:1026B000083503E0254D0C3500E070BD00BF2E60ED
:1026C00000BFFAE730B5214A00214FF0844505EB01
:1026D000421404EB8103186000BF30BD18B1012122
:1026E0001A4A116202E00021184A1162704701463D
:1026F0000A780AB1012000E000204A780AB140F0CF
:1027000002008A780AB140F00400104A1060704755
:1027100000200E49086208608860C860C86188614E
:10272000704700B50020FFF7CDFF0120FFF7CAFF7B
:1027300000BD00002E2E5C656D6C69625C73726377
:102740005C656D5F7274632E6300000000000840DA
:1027500070B505460C466548854202D064488542FE
:1027600000D103E04F2163A0FDF742FF207808B9B4
:102770000220686000206862A0780006E17840EAE4
:102780000140A17940EA8120E17940EA0120217AE3
:102790000843617809B1402100E000210843617AD3
:1027A00009B1802100E000210843A17A09B120216C
:1027B00000E000210843E17A09B1102100E0002186
:1027C0000843217911B14FF4005100E00021084382
:1027D000617911B14FF0805100E000210843217B65
:1027E00009B1082100E0002108432860207808B1E1
:1027F0000120686070BD70B505460E4614463B4822
:10280000854202D03A48854200D103E0882139A0B0
:10281000FDF7EEFE032E00D203E0892135A0FDF77F
:10282000E7FE20788006617840EA0160A17840EAFE
:102830000140E17840EA0130217940EA8120617964
:1028400040EA0120A1790843E17911B14FF4001168
:1028500000E000210843217A11B14FF4801100E01B
:1028600000210843617A09B1102100E000210843EA
:10287000A17A09B1042100E00021084305F13001EB
:1028800001EB0611086070BD70B50446174884421C
:1028900002D01748844200D103E0E02115A0FDF7E3
:1028A000A7FE0220606000202060E06040F27370AC
:1028B000A0614FF6FF70E061002020626062002599
:1028C00010E0002104F1300000EB0510016004F17C
:1028D000300000EB0510416004F1300000EB051002
:1028E000C1606D1C032DECDB70BD000000000140D9
:1028F000000401402E2E5C656D6C69625C7372632E
:102900005C656D5F74696D65722E63002DE9F0473B
:1029100006460D461446994604B103E09921F3A0FA
:10292000FDF766FE1DB9F748FEF711FA0546B9F145
:10293000000F09D0B9F1200F11D0B9F1400F19D013
:10294000B9F1600F2ED122E0B4EB151F00D803E0DF
:10295000BF21E6A0FDF74CFE4FF0100828E0B4EBD5
:10296000D50F00D803E0C421E0A0FDF741FE4FF0F1
:1029700008081DE00620B5FBF0F0A04200D303E0FC
:10298000C921DAA0FDF734FE4FF0060810E0B4EBE1
:10299000950F00D803E0CE21D4A0FDF729FE4FF01B
:1029A000040805E0D421D1A0FDF722FEBDE8F087A0
:1029B00000BFA90008FB04F001EB500708FB04F07E
:1029C000B7FBF0F73F1FBF01CF48874200D803E0B5
:1029D000E321C6A0FDF70CFECB480740306820F08D
:1029E00060003060306840EA09003060776100BF05
:1029F000DCE72DE9F04304460D4616461F46DFF896
:102A0000089305EA090516B10122802112E027B1D9
:102A1000202F05D0402F09D105E00122102108E028
:102A20000122202105E00322802102E00122402131
:102A300000BF00BF05F5807909FB02F3B4FBF3F892
:102A4000B4FBF3F903FB194C01FB08F001FB0CF993
:102A5000B9FBF3F94844BDE8F0832DE9F0410446A1
:102A6000206800F0010008B1012500E00025A5481C
:102A7000FEF76DF90746206800F06006616933468D
:102A80002A463846FFF7B5FFBDE8F0812DE9F04151
:102A900007460E46154605B104E040F2C11193A069
:102AA000FDF7A6FD1EB99748FEF751F906467400DA
:102AB000681E0444B4FBF5F4241FA401C03424F0C0
:102AC000FF049148844200D804E04FF4F87187A0D5
:102AD000FDF78EFD8C4804407C61BDE8F08170B547
:102AE00004460D468948844204D08948844201D076
:102AF00000BF00E004E040F20D217CA0FDF778FD6E
:102B0000EE4306F005067000E060E56070BD10B5AC
:102B100004467E48844204D07D48844201D000BFF0
:102B200000E004E040F23E3170A0FDF761FD40F6A8
:102B3000AA60E0600020206041F205006060002093
:102B4000A0606061E06441F6F970A06400206065F7
:102B50006E48844201D1002020650020A0656C48A9
:102B6000844201D10020E06510BD70B505460C46D9
:102B70006648854204D06648854201D000BF00E027
:102B800004E040F2352159A0FDF732FD2846FFF759
:102B9000BEFFA07C18B1286840F080402860E07C2F
:102BA00018B1207D40F01000A865607B218A0843A1
:102BB000E18908436860237B2846D4E90112FFF7C6
:102BC000A5FE2078E86070BD70B504460D464F48FC
:102BD000844203D04E48844200D000E004E040F23A
:102BE000722142A0FDF704FD2046FFF790FF288ADE
:102BF00040F00100A97B11B14FF4806100E0002199
:102C00000843216808432060A87C08B1102000E038
:102C10000020297D11B14FF0005100E00021084350
:102C2000216808432060287B40F480506060204683
:102C3000D5E90112FFF72AFF687B08B11020E06098
:102C40002878E06070BD70B50546304C29462046B6
:102C5000FFF78BFF206840F480402060287E18B189
:102C6000206840F400502060A87E297F0843697ED8
:102C700040EAC100E97E40EAC110216D08432065A9
:102C8000206D40F00100206570BD70B505460C4612
:102C90001F48854200D104E040F2F12113A0FDF766
:102CA000A7FC26780020207021462846FFF78CFFDD
:102CB000208B217F0843A17E09B1102100E0002173
:102CC0000843E17E09B1082100E000210843617F4B
:102CD00009B1022100E00021084340F00100E8654D
:102CE0001EB131462846FFF7FAFE70BD2E2E5C65F8
:102CF0006D6C69625C7372635C656D5F7573617244
:102D0000742E630010810200C0FF1F0000C000404D
:102D100000C400400246936823F077000B780BB1A3
:102D200040F040008B780BB140F020004B780BB1A5
:102D300040F01000CB78184390607047014600BF08
:102D4000086900F080000028FAD0C869C0B2704756
:102D5000014600BF086900F480700028FAD0486A74
:102D600080B27047014600BF086900F480700028F7
:102D7000FAD0086A7047014600BF086900F0800079
:102D80000028FAD0886980B27047024600BF1069F7
:102D900000F040000028FAD0516300BF106900F035
:102DA00020000028FAD0D069C0B2704700BF026985
:102DB00002F04002002AFAD04163704700BF026966
:102DC00002F04002002AFAD0C163704700BF0269D6
:102DD00002F04002002AFAD08163704700BF026906
:102DE00002F04002002AFAD00163704730B54FF07C
:102DF000844505EB401404EB81031A6030BD10B527
:102E0000044634B900BF3448806800F0010000284F
:102E1000F9D1224600213048FFF7E8FF10BD2E48C7
:102E2000006800F0010000B970472B48806800F08E
:102E3000020000B1F8E700BF2748806800F00100F9
:102E40000028F9D101202449486000BFECE710B503
:102E500000BF2148806800F001000028F9D101225C
:102E600004211D48FFF7C2FF10BD70B5044620784D
:102E700008B1012500E00025607808B145F00205A1
:102E8000A07808B145F00405E07808B145F00805E0
:102E9000207908B145F02005607908B145F040057A
:102EA000E0790003217A40EA0120054300BF0A4887
:102EB000806800F001000028F9D107480560A0797A
:102EC00048B1207810B1FFF7C2FF04E001220421CD
:102ED0000148FFF78BFF70BD008008402DE9F041ED
:102EE0008AB01822A849684604F07BF86C4604B101
:102EF00003E03221A5A0FDF77BFB0121A848FDF7E7
:102F0000E8FEA8492068884202D1DFF89C8206E0EA
:102F100048219EA0FDF76CFB0AB0BDE8F0810121BD
:102F20004046FDF7D6FE6179207901230A22FEF79B
:102F300080FFE179A07901230A22FEF77AFF0025BC
:102F40002AE026796779052E02DC102F00D204E0F2
:102F500040F20B2195A0FDF74BFB0120B84006EB9A
:102F6000C601984A02EB8101086100BF26796779A2
:102F7000052E02DC102F00D204E040F2DF118BA0FE
:102F8000FDF736FB0120B84006EBC6018D4A02EB87
:102F90008101486100BF6D1C092DD2D3207A032125
:102FA00041EA00202168886301208DF818008DF81F
:102FB000190020690890E0680790207D8DF82400B2
:102FC00006A92068FFF710F800BFA5E7704738B5DD
:102FD0000446012C02D1FFF781FF10E07A48007807
:102FE000022800D138BD0023042219461846FEF7F6
:102FF00020FF0023042201211846FEF71AFF724821
:1030000004708DF8014005208DF80000684600F03E
:103010000FFA00BFE6E72DE9F04105460E466B4F7B
:1030200031462846FFF76EF9044603E02846FFF7CD
:103030000AF80446012C03D1381EA7F10107F5D187
:103040002046BDE8F08170B586B006460D46ADF865
:1030500004500120ADF80600002002900021ADF8D8
:103060000C100CE001A93046FFF7D5FF044604B967
:1030700006E0601C00B902E0204606B070BDF1E732
:1030800000BF0020F9E7F0B587B004460F461546AB
:10309000B4F5004F02D3002007B0F0BD0120FFF7C8
:1030A00096FF6019B0F5004F01D9C4F50045A02086
:1030B000ADF808000420ADF80A00200A8DF80400DD
:1030C000E0B28DF8050001A803900221ADF81010C0
:1030D0000597ADF8185002A93248FFF79CFF064645
:1030E0000EB13046D8E72846D6E72DE9F04786B03E
:1030F00004460F461546B4F5004F03D3002006B032
:10310000BDE8F0870120FFF762FF6019B0F5004FBE
:1031100001D9C4F5004533E004F03F00C0F1400997
:103120004D4501D94E4600E02E46A020ADF80400E2
:103130000820ADF80600200A8DF80000E0B28DF8F6
:103140000100CDF808D00221ADF80C100497ADF8BD
:10315000146001A91348FFF75EFF8246BAF1000F21
:1031600001D05046CBE737443444AD1BA0210D4875
:10317000FFF769FF8046B8F1000F01D04046BEE777
:10318000002DC9D12846BAE7247700002E2E5C42D4
:1031900053505C6273705F6969632E6300000000C6
:1031A0001081020000A0004000B202002E2E5C65DB
:1031B0006D6C69625C696E635C656D5F6770696F99
:1031C0002E6800000060004030000020E093040002
:1031D00008B501211348FDF77CFD01211248FDF7D8
:1031E00078FD01231A460D210020FEF722FE012062
:1031F000034602460D2100900020FEF7CFFD092076
:1032000001218140094A430942F8231000BF00BF51
:10321000012181404209920002F1E022C2F800112E
:1032200000BF08BD108102000062020080E200E0E1
:1032300010B501217348FDF74CFD01217248FDF7DF
:1032400048FD00242DE00023042221461846FEF705
:10325000F0FD072C07D0082C05D0002304222146BE
:103260000120FEF7E6FD0F2C05D0002304222146A5
:103270000220FEF7DEFD0023042221460320FEF794
:10328000D8FD0023042221461046FEF7D2FD3CB1B2
:10329000012C05D00023042221460520FEF7C9FD9C
:1032A000641C102CCFDB10BD10B501215548FDF773
:1032B00010FD01215448FDF70CFD00240CE0534A99
:1032C00002EBC4025168514A02EBC4025078012358
:1032D0000422FEF7AEFD641C042CF0DB10BD70B5BB
:1032E0000446042C1BDA494800EBC40046784748E2
:1032F00000EBC4004568052E02DC102D00D204E06E
:1033000040F2222142A0FDF773F90120A84006EB0C
:10331000C601454A02EB8101886100BF00BF70BD54
:1033200070B50446042C1BDA384800EBC40046781C
:10333000364800EBC4004568052E02DC102D00D293
:1033400004E040F20B2132A0FDF752F90120A84021
:1033500006EBC601344A02EB8101086100BF00BFE1
:1033600070BD70B50446042C1BDA284800EBC4007D
:103370004678264800EBC4004568052E02DC102D77
:1033800000D204E040F2DF1121A0FDF731F9012065
:10339000A84006EBC601244A02EB8101486100BF48
:1033A00000BF70BD70B504460D46042C04DA1F49F9
:1033B0000D552046FFF7D5FF70BD002009E01B49E1
:1033C000095C21B11949095C491E184A1154411C74
:1033D000C8B20428F3DB704770B5002500240CE068
:1033E0001248005D20B12046FFF7BBFF012506E033
:1033F0002046FFF795FF601CC4B2042CF0DB00BF31
:10340000284670BD10810200006202003C77000077
:103410002E2E5C656D6C69625C696E635C656D5FC8
:103420006770696F2E680000006000403100002066
:1034300010B504462078072800DB10BD012115488F
:10344000FDF747FC01211448FDF743FC6078012893
:103450000FD1227802EB4202104B1A449178227865
:1034600002EB42021A44507801230422FEF7E1FCE9
:103470000EE0227802EB4202084B1A44917822783F
:1034800002EB42021A44507800230422FEF7D1FCDA
:1034900000BFD2E710810200006202005C770000EA
:1034A0000146CA1701EB92729210A1EB82022AB96F
:1034B000642291FBF2F302FB131232B94FF4C8728B
:1034C00091FBF2F302FB13120AB9012070470020AE
:1034D000FCE72DE9F05F0446607900F05AFE0646ED
:1034E000207900F056FE80462079032805DA701E08
:1034F00086B208F10C001FFA80F8642196FBF1F205
:1035000001FB1261642296FBF2F302FB1360C21707
:1035100000EB927201EBA2018FB2642096FBF0F0F7
:103520001430C5B208F101001A2148430A2190FB6A
:10353000F1F1AA46E81705EB9070821007F14600FA
:103540001044022202FB150001EB000BE07800F0B2
:1035500020FE5844401E072190FBF1F201FB1200AF
:1035600000F0FF094846BDE8F09F2DE9F04106460E
:103570000025707900F00DFE074607F5FA674FF455
:10358000FA640AE0E0B2FFF78BFF10B18C48054403
:1035900001E08C480544601C84B2BC42F2DB307907
:1035A00010B90020BDE8F081317901F01F0000F072
:1035B000F0FD401E00F0FF08002410E08248005D8E
:1035C00040F2A321484305EBC015F8B2FFF768FFAE
:1035D00018B1012C01D17D480544601C84B24445DA
:1035E000ECDBF07800F0D5FD401E84B240F2A32061
:1035F000604305EBC015B07800F0CBFD0446C4EB8A
:103600004410C0EB042005EB0015707800F0C1FDFC
:103610000446C4EB041005EB8005307800F0B9FDDA
:1036200005446B4805600120BCE72DE9F0470546DD
:103630004FF000096648D0F800806448B8FBF0F409
:10364000A14578D04FF4FA6600271FFA84F910E0FC
:10365000F0B2FFF725FF40B1B4F5B77F02D3A4F570
:10366000B77404E0701C86B206E0A4F26D14701CFE
:1036700086B2B4F5B67FEBD800BFA6F5FA6086B285
:10368000F0B200F024FE6871002715E0F0B2FFF7F9
:1036900007FF30B1012F04D11D2C01D31D3C09E0DF
:1036A0000CE04948C05DA04203D84748C05D241AD9
:1036B00000E003E0781C87B21C2CE7D200BF791C25
:1036C000C8B200F004FE2871611CC8B200F0FFFD12
:1036D000E8703E48B8FBF0F100FB11844FF46160E4
:1036E000B4FBF0F000F0FF0A504600F0F0FDA870C7
:1036F0004FF46160B4FBF0F100FB11403C21B0FBE2
:10370000F1F000F0FF0A504600F0E1FD68704FF460
:103710006160B4FBF0F100FB11403C21B0FBF1F221
:1037200001FB120A504600F0D2FD28702846FFF730
:10373000D0FEA87100BF0120BDE8F0870EB5254975
:1037400003C90190029123480830006800900121CC
:103750002148FDF7BEFA02212048FDF7C8FB2021D1
:103760001F48FDF7C2F901211D48FDF7B2FA0020FC
:103770008DF800008DF8010001208DF802006846E8
:10378000FEF7B5FF40F2FF310020FEF77FFF11206A
:10379000012181404209920002F1E022C2F80011A9
:1037A00000BF02200F49C96901430E4AD16100BF21
:1037B0000120FEF787FF01A8FFF7D7FE0EBD00002E
:1037C0000085E2018033E10174770000805101003F
:1037D000380000208077000000230400020006006B
:1037E000301408000000084000B587B04FF41650B0
:1037F00000900020ADF806004FF48050ADF80800AE
:1038000005208DF804000D4803907820ADF81000D5
:103810000B4805907820ADF8180000208DF81A00AC
:103820006946022000F0C1F807B000BD05E001F0D4
:103830007AFB4FF47A70FCF710FEF8E78001002065
:103840003C0000207FB5044601211648FDF741FAEF
:10385000154B0FCB8DE80F0001201449C9680143B7
:10386000124AD16000BF022001218140420992002A
:1038700002F1E022C2F8001100BF0A48FDF767FA22
:10388000800A4FF47A71B0FBF1F000FB04F50748B1
:10389000C56100BF6946FEF75BFF7FBD10B5FCF751
:1038A000D7FD10BD004202008C77000000000140EF
:1038B00010B5012304220E211046FEF7BAFA0123A7
:1038C0001A460F210420FEF7B4FAFE48406D40F27C
:1038D00003210843FB49486510BD10B50121FA4892
:1038E000FDF7F7F90121F948FDF7F3F90123042267
:1038F0000A211046FEF79DFA01231A460B210420E7
:10390000FEF797FAF248406D20F4E060F049486510
:103910000846406D40F00300486510BD10B5012118
:10392000E948FDF7D6F90121E848FDF7D2F901236E
:10393000042200210320FEF77CFA01231A461946CF
:103940000320FEF776FAE348006840F203110843CB
:10395000E049086010BD01460020012904D0022979
:1039600005D0032909D105E0DB4A106806E0DB4AEF
:10397000106803E0DA4A106800E000BF00BF70473B
:103980000146D5480068814201D101207047D348E3
:103990000068814201D10220F8E7D14800688142E5
:1039A00001D10320F2E70120F0E770B586B00646AA
:1039B0000D463046FFF7CFFF04466869A060E8680F
:1039C000E060288B6082288AA082A97E3E20015573
:1039D0002868B0F5165F30D011DCB0F5966F23D0B3
:1039E00006DCB0F5967F17D0B0F5167F34D117E01E
:1039F000B0F5166F1BD0B0F5965F2DD11AE0B0F57B
:103A0000964F1DD0B0F5164F1DD0B0F5614F1DD0AB
:103A1000B0F5E13F20D11CE04FF44870A0831EE0D8
:103A20004FF4C870A0831AE0C820A08317E0642078
:103A3000A08314E03220A08311E01420A0830EE0C4
:103A40001420A0830BE00A20A08308E00A20A083B2
:103A500005E0C820A08302E00920A08300BF00BFCA
:103A6000002020806080A080E08220836083E0834B
:103A7000A08B401C208401219348FDF72AF90121E5
:103A80009248FDF726F9012E4ED1964B0FCBCDE98A
:103A90000423CDE9020101219348FDF71AF902211F
:103AA0009248FDF724FA01219148FDF712F92868A0
:103AB000049000208DF814008D48FDF748F903901C
:103AC00000208DF81500E888B0F5007F03D10820AC
:103AD0008DF8150006E0E888B0F5407F02D10C2093
:103AE0008DF8150000208DF816007648FEF720FDB1
:103AF00002A97448FEF7F0FC41F6F9707149486379
:103B00000E2000F0B0FA0E2000F0A2FA05206D4958
:103B10008863FFF7CDFE00216A48FEF75DFD0021B6
:103B20006848FEF76BFD6BE0022E31D118226D491B
:103B30001031684603F055FA01216E48FDF7C9F8C7
:103B40002868029028798DF80D00E888ADF80E00FD
:103B50002889ADF8100069465D48FFF706F841F680
:103B6000F9705B498864032000F07DFA032000F0BF
:103B70006FFA042000F077FA042000F069FAFFF7EA
:103B8000ACFE5348C06C40F005005149C86437E0B2
:103B9000032E35D1182253492831684603F021FA03
:103BA00001215548FDF795F82868029028798DF88D
:103BB0000D00E888ADF80E002889ADF810006946C0
:103BC00044485438FEF7D1FF41F6F97041490C39A9
:103BD00008600B2000F047FA0B2000F039FA0C20A7
:103BE00000F041FA0C2000F033FAFFF797FE394855
:103BF0000838006840F0050036490839086000BF01
:103C0000012006B070BD08B5002200923B4A126840
:103C100090423BD2304A126882420ED131B1294AD9
:103C2000526842F00102274B5A602FE0254A526841
:103C300022F00102234B5A6028E0284A126882428F
:103C40000ED131B1224AD26842F00102204BDA6033
:103C50001CE01F4AD26822F001021D4BDA6015E019
:103C60001F4A1268824211D141B11A4A483A126879
:103C700042F00102174B483B1A6007E0154A483AE8
:103C8000126822F00102134B483B1A6008BD10B5C0
:103C90000446002304220F211846FEF7CAF810BD7F
:103CA000F8B504460C480068A0425BD100BF054847
:103CB000C66A00BF06F0040070B30248C069C0B213
:103CC00000901DE0004008401081020000620200E8
:103CD00000C0004054C40040BC000020C0000020D0
:103CE000C40000209C7700000023040003001200A1
:103CF000400514000022020000320200C80000202B
:103D00002088A18A884207DA9DF800002288E168AD
:103D100088542088401C20804FF0FF30D6494863EB
:103D200000BF06F00100002866D0A088401CA080DB
:103D3000A0886188884206DAA288A068815CCE48A3
:103D4000FEF72CFC58E03E20005D332802D12046CF
:103D5000FFF79DFF608808B1208CE0830020A080E1
:103D6000608049E0C5480068A04201D1C44D06E02A
:103D7000C4480068A04201D1C34D00E0F8BD286CE2
:103D800000F0040078B12846FEF7D8FF00902088A4
:103D9000A18A884207DA9DF800002288E1688854E9
:103DA0002088401C2080286C00F0010018B3A088F7
:103DB000411CA180E9688143E960A86C40F00100E2
:103DC000A864A0886188884206DAA288A068815C1D
:103DD0002846FEF7EBFF0EE0608808B1208CE083F8
:103DE0000020A08060803E20005D012803D10121D9
:103DF0002046FFF708FF00BF00BFBFE710B5A3488C
:103E00000068FFF74DFF10BD10B59C480068FFF734
:103E100047FF10BD10B599480068FFF741FF10BD7E
:103E200010B598480068FFF73BFF10BD10B59548E6
:103E30000068FFF735FF10BD10B5044601230422CA
:103E40000F210020FDF7F5FF10BD01884FF6FF722E
:103E5000914202D0018801B9704701210174018BA0
:103E6000C28A891A01800021C18200BFF4E710B51F
:103E700004462046FFF76FFD0346988A00B910BD3F
:103E8000588A20B1D88B10B1D88B401ED883187CAB
:103E900000B1F4E7988B00F40040C8B9188B19887A
:103EA000884210D1588B401C5883588B998B88427C
:103EB0002FDBD88A198B88422BD01846FFF7C5FF15
:103EC0000020588325E0188818830020588320E0BC
:103ED0001888D98A88421CD01888D98A401A998BA8
:103EE000C1F30D01884203DA1888998A884210DBF1
:103EF000D88A998BC1F30D0108441883188B998ACD
:103F0000884203DB988A1883988A18801846FFF73E
:103F10009CFF00BFB3E710B504462046FFF71BFD2A
:103F20000346988818B9588808B9D88B08B1012079
:103F300010BD0020FCE72DE9F04106460F4615466E
:103F40003046FFF708FD0446608A6188401AA8429F
:103F500006DB2DB13046FFF7DEFF20B1208C10B11B
:103F60000020BDE8F0813E20005D332802D12046CC
:103F7000FFF762FF3E20005D012803D100212046AB
:103F8000FFF741FE608838BB65800020A0802A468C
:103F90003946A06803F025F8062E2DDA012E05D14A
:103FA000A06801783448FEF7F9FA25E03348006844
:103FB000A04202D13248206408E032480068A042A2
:103FC00002D13148206401E00020CAE7A2681178DC
:103FD000206CFEF7EBFE0FE06288A16888182A4685
:103FE000394602F0FEFF6088284460802448C06C97
:103FF00020F004002249C8640120B2E710B504464D
:104000002046FFF7A8FC0346187C08B1188810BDAD
:104010000020FCE770B505462846FFF79CFC0446E7
:1040200000202074E0822080A18AE06803F000F87C
:10403000012070BD70B505462846FFF78CFC04468C
:1040400000206080618AA06802F0F2FF012070BD4C
:1040500000F01F02012191404209920002F1E0228A
:10406000C2F80011704700F01F0201219140084A78
:10407000430942F82310704700400840C000002068
:1040800000C00040C400002000C40040BC0000206C
:1040900080E200E00EB50B4A07CA8DE807006846CB
:1040A000FEF7E3FE0EBD10B50120FEF7A8FE00BF2F
:1040B0000548806800F001000028F9D1FEF7AFFE46
:1040C00010BD0000DC7700000080084001460A783F
:1040D0004B7802EB032290B2704710B502460020E5
:1040E000002106E0535CCC0003FA04F420444C1C8D
:1040F000A1B20329F6DB10BD10B502460020002155
:1041000006E0535CCC0003FA04F420444C1CA1B23A
:104110000429F6DB10BD2DE9F05F834600210F4630
:1041200088468A4612E01BF80A40E61725464FEA01
:10413000CA022C46B1462046494602F043FFC71941
:1041400041EB08080AF1010000F0FF0ABAF1050F7F
:10415000E9DB38464146BDE8F09F0870020A4A7024
:1041600070470870020A4A70020C8A70020ECA7008
:10417000704710B51070030A43EA01635370030CD3
:1041800043EA01439370030E43EA0123D370117194
:1041900010BD0146080901F00F0200EB800302EB9D
:1041A0004303D8B2704730B504462078FFF7F1FFDB
:1041B00005466078FFF7EDFF00EBC00101EB001052
:1041C00005EB8005284630BD30B504462078FFF762
:1041D000E0FF05466078FFF7DCFF00EBC00101EB74
:1041E000001005EB8005A078FFF7D3FF40F27121A6
:1041F000484305EB0015284630BD70B504462078CD
:10420000FFF7C7FF05466078FFF7C3FF00EBC0016B
:1042100001EB001005EB8005A078FFF7BAFF06461A
:1042200040F27120704305EB0015E078FFF7B1FF15
:10423000064643F60950704305EB8015284670BDCD
:104240002DE9F04304462078FFF7A3FF002605463A
:104250006078FFF79EFF64214843451946EBE076FE
:10426000A078FFF796FF4FF00008074642F2107261
:104270004FF0000C3B46A3FB020908FB029107FB31
:104280000C1245195641E078FFF783FF0746F84ABC
:104290004FF0000C3846A0FB021908FB029207FB06
:1042A0000C204D1946412079FFF773FF0746F14B6B
:1042B0004FF0000C3846A0FB031908FB039207FBE4
:1042C0000C204D19464128463146BDE8F08310B513
:1042D0000146642391FBF3F403FB14130A2493FBBC
:1042E000F4F3D8B20A2391FBF3F403FB1413DAB20C
:1042F00002EB0013D8B210BD30B50146002042F2E7
:10430000107391FBF3F39AB212B149F6991039E0A8
:104310004FF47A7391FBF3F39AB200EB023398B245
:104320004FF47A7391FBF3F403FB1413642493FBAF
:10433000F4F39AB200EB022398B24FF47A7391FB34
:10434000F3F403FB1413642493FBF4F504FB15331B
:104350000A2493FBF4F39AB200EB021398B24FF4E1
:104360007A7391FBF3F403FB1413642493FBF4F5C9
:1043700004FB15330A2493FBF4F504FB15339AB2BE
:10438000831898B230BD70B588B00146BA4E009619
:10439000B74E0196B94E029642F2107603964FF44C
:1043A0007A760496642605960A26069601260796CE
:1043B0000020002312E00022002500240AE05DF81E
:1043C00023603244914203D200012043491B03E0A1
:1043D0001546641C0A2CF2DB00BF5B1C082BEADBD1
:1043E00008B070BD2DE9F04F06460F464FF0000AA9
:1043F00050465146D0462BE0002213460024254665
:1044000094461DE0DFF8789259F8289019EB0202E3
:1044100043F10003B6EB020977EB03090AD24FEA36
:10442000011949EA1071000140EA0C00361B67EBE4
:10443000050708E014461D460CF1010909F0FF0CC0
:10444000BCF10A0FDEDB00BF08F1010909F0FF082B
:10445000B8F10A0FD0DBBDE8F08F30B504460D4649
:104460002046FFF796FE04466019C4B2632C02DDB5
:10447000A4F16400C4B22046FFF729FF30BD70B537
:1044800006460D463046FFF784FE0446AC4202DA8B
:1044900004F1640084B2AC4202DA04F1640084B234
:1044A000AC4202DA04F1640084B2601B84B2E6B26A
:1044B0003046FFF70CFF70BD2DE9F8478046C8F382
:1044C0000B0000906846FFF76EFE0090BDF80040BC
:1044D00000254FEA5839B9F1080F62D2DFE809F038
:1044E000040F1A25323E4955634A00212046A0FB9D
:1044F00002CA05FB02A204FB0125644652E05C4AA5
:1045000000202146A1FB02CA05FB02A204FB0025F4
:10451000644647E0594900202246A2FB01CA05FB38
:1045200001A104FB001564463CE042F210724FF01A
:10453000000C2146A1FB020A05FB02A204FB0C258C
:1045400004462FE04FF47A7200202146A1FB02CAF4
:1045500005FB02A204FB0025644623E0642300213E
:104560002046A0FB03CA05FB03A204FB0125644609
:1045700018E00A224FF0000C2046A0FB021A05FBAF
:1045800002A204FB0C250C460CE001234FF0000CAA
:104590002146A1FB032A05FB03A004FB0C051446DE
:1045A00000E000BF00BF08F4805020B10020664248
:1045B00060EB050701E026462F4630463946BDE848
:1045C000F8872DE9F047074688464FF0000AD146A4
:1045D0004FF00042002008EA0201024640405140EC
:1045E000084306D04FF0010900207C4260EB08052B
:1045F00001E03C464546234A00232046294602F076
:10460000B0FC002358405940084308D01A4A2046BD
:10461000294602F0A6FC86B24FF0000A8BE0154A4C
:1046200000232046294602F09CFC002358405940B4
:10463000084308D00E4A2046294602F092FC86B272
:104640004FF0010A77E00C4A00232046294602F089
:1046500088FC002358405940084315D0074A20469B
:10466000294602F07EFC86B24FF0020A63E00000A9
:1046700040420F0000E1F50580969800A0860100F9
:10468000E877000000CA9A3BD34A00232046294617
:1046900002F067FC002358405940084309D042F219
:1046A00010722046294602F05CFC86B24FF0030AE5
:1046B00041E0CA4A00232046294602F052FC00236A
:1046C00058405940084309D04FF47A722046294691
:1046D00002F047FC86B24FF0040A2CE042F210725E
:1046E00000232046294602F03CFC00235840594054
:1046F000084308D064222046294602F032FC86B2E4
:104700004FF0050A17E04FF47A720023204629463D
:1047100002F027FC002358405940084308D00A22E1
:104720002046294602F01DFC86B24FF0060A02E040
:10473000A6B24FF0070A3046FFF7DEFD0646B9F194
:10474000000F01D046F4805646EA4A3086B2304621
:10475000BDE8F08738B5044624F070400090684604
:10476000FFF74BFD0090009D04F0805000B16D42BA
:10477000284638BDF8B5044624F0704000906846DD
:10478000FFF73BFD00900026009D04F0804050B1F3
:104790004FF47A7300272946A1FB030C06FB03C2E2
:1047A00005FB0726054604F0805018B100226D4233
:1047B00062EB060628463146F8BD2DE9F04706466D
:1047C0000F464FF00009CA46C84600210846711A34
:1047D00077EB00000BDA4FF0FF310846A6FB0142F1
:1047E00007FB012106FB00154FF0010901E03446EB
:1047F0003D467B490020091BA84109D24FF47A723B
:1048000000232046294602F0ACFB04464FF0010A83
:104810002046FFF7B8FD8046B9F1000F01D048F0FF
:104820008058BAF1000F01D048F080484046BDE8FA
:10483000F087F0B50546002600272C4605F000401D
:1048400010B124F0004401266548844204D94FF495
:104850007A70B4FBF0F401272046FFF794FD04467C
:104860000EB144F080540FB144F080442046F0BDB6
:1048700030B502460B460021002405E012F8015B2A
:104880006818C1B2601C84B29C42F7DBC1F1FF0121
:10489000481CC0B230BD0146002901DB084600E0DB
:1048A0004842704710B5034607E0187810440C786A
:1048B0001444A04201DD012010BD101EA2F101042C
:1048C000E2B2F2D100BFF7E72DE9F04704462546F2
:1048D0002E464448A0EB660635464FF07C512046F4
:1048E00002F02FFC8146294602F02BFC07462946A0
:1048F0004FF07C5002F057FC8046394602F0C9FB6D
:104900000546284602F092FCBDE8F0872DE9F04705
:1049100007468846002600250AE0691C022202FBA1
:104920000170FFF740FC044604FB0466681CC5B236
:10493000A8F1020000EBD071B5EB610FEDDB38465A
:10494000FFF731FC0446304602F06BFC8246FFF76D
:10495000BBFF06461FFA86F94846FFF7CDFC8146A5
:104960004846BDE8F08710B50246002000231046F7
:1049700009B9012006E0002301E050435B1C4C1EF6
:104980009C42FAD810BD30B502460B46002100BF4C
:104990000CE0505C00F00F04505C0511092C01DCA8
:1049A000092D01DD002030BD481CC1B29942F0DB69
:1049B0000120F8E710B50346002400BF07E018788F
:1049C000904202D05B1C002010BD601CC4B28C421F
:1049D000F5DB0120F8E7000040420F00A08601004F
:1049E0007F969800DF59375F70B504460D46052C59
:1049F00002DC102D00D204E040F2DF11F9A0FBF739
:104A0000F7FD0120A84004EBC401FC4A02EB810140
:104A1000486170BD00B587B04FF4E13000900020D0
:104A2000ADF806004FF48050ADF8080005208DF871
:104A30000400F34803906420ADF81000F04866309D
:104A40000590C820ADF8180000208DF81A006946BE
:104A50000320FEF7AAFF07B000BDEA49887370473C
:104A6000E848807B704770B5012304220321184673
:104A7000FDF7DFF96420FBF7F0FC01250324052D89
:104A800002DC102C00D204E040F20B21DEA0FBF788
:104A9000AFFD0120A04005EBC501D84A02EB810122
:104AA000086100BF4FF4FA60FBF7D7FC0321012037
:104AB000FFF79AFF70BD08B506208DF800000120B1
:104AC0008DF801006846FEF7B3FC6420FBF7C5FCD7
:104AD000FFF7C9FF08BD08B506208DF800000220C9
:104AE0008DF801006846FEF7A3FC08BDC548406884
:104AF00020B1C4484068401EC24948607047F0B5C4
:104B000004460D4600230020224600211CE0565C8E
:104B10003A2E17D18E1C965D392E0FDC8E1C965DB9
:104B2000302E0BDB8E1C965D303E4F1CD75D303F28
:104B300007EB870706EB4706F3B203E04E1C965DD2
:104B4000303EF3B24E1CF1B2A942E0DB1C2B01DD7A
:104B500004200CE0162B01DD032008E0102B01DD02
:104B6000022004E00A2B01DD012000E00020F0BD5E
:104B70002DE9F04106460C461546284602F075FA26
:104B800000F0FF089F480078022805D19D48407B2F
:104B90009C490873032008709A480078032812D1B2
:104BA000FFF738FA0320FFF745FA964880689549E1
:104BB0004860002C04DD224631460320FFF7BBF994
:104BC0000420904908708F48406810B907208D492B
:104BD00008700320FFF712FAC7B24FB12946884880
:104BE00002F031FA20B1052086490870BDE8F08155
:104BF00084480078072806D10320824908700846B7
:104C0000007B401E08737F48007B18B909207D494E
:104C10000870EBE77B480078E8E72DE9F0478CB0B7
:104C200006460F4692469846DDF850907C4C11346B
:104C300032467CA1204602F0A9FBC5B22C442E20AE
:104C400004F8010B3A4677A1204602F09FFBC5B25B
:104C50002C442E2004F8010B524672A1204602F08B
:104C600095FBC5B22C442E2004F8010B42466DA1E1
:104C7000204602F08BFBC5B22C44222004F8010B25
:104C80002C2004F8010B222004F8010B4A4665A1F0
:104C9000204602F07BFBC5B22C44222004F8010B15
:104CA0000D2004F8010B0A2004F8010B002004F881
:104CB000010B8DF800608DF801708DF802A08DF861
:104CC000038009F0FF008DF804004FEA29208DF8D9
:104CD0000500A120ADF81C0040F20240ADF8200014
:104CE0000120ADF81E00CDF82CD01C20ADF8280016
:104CF00007A800F033FE0CB0BDE8F08770B58CB0AB
:104D0000A220ADF81C0040F20240ADF820000120C6
:104D1000ADF81E00CDF82CD01C20ADF8280007A857
:104D200000F01CFE3E4C11349DF800203DA12046B1
:104D300002F02CFBC5B22C442E2004F8010B9DF888
:104D4000012038A1204602F021FBC5B22C442E20C0
:104D500004F8010B9DF8022032A1204602F016FB58
:104D6000C5B22C442E2004F8010B9DF803202DA180
:104D7000204602F00BFBC5B22C44222004F8010BA4
:104D80002C2004F8010B222004F8010B9DF80410DC
:104D90009DF8050001EB002086B2324621A1204695
:104DA00002F0F4FAC5B22C44222004F8010B0D20C5
:104DB00004F8010B0A2004F8010B002004F8010B91
:104DC0000CB070BD70B500240D4D0320FFF716F92F
:104DD000C4B2002C04DD22462946032001F0DDFF89
:104DE00070BD00002E2E5C656D6C69625C696E633F
:104DF0005C656D5F6770696F2E6800000060004041
:104E0000D4030020040500202E2E5C656D6C6962C1
:104E10005C696E635C656D5F6770696F2E6800002A
:104E2000FE0000202564000010B579E0FD484078C0
:104E3000E0B90320FFF7EEF80320FFF7FBF8FFF7D8
:104E4000E9FDFFF738FE40F6B830FBF706FB02201D
:104E5000F4490870487042F2107088600846806813
:104E60004860012048730846407B0873ED4840784D
:104E7000022821D142F21070EA4988600320487369
:104E8000E94802F0F2F884B2E8A22146E648FFF7CA
:104E90006FFE052802D009280CD105E00320E14966
:104EA00048700220087006E00220DE4908700920E0
:104EB000487000E000BF00BFDA4840780B2821D1DD
:104EC00042F21070D749886003204873D84802F036
:104ED000CCF884B2D5A22146D548FFF749FE052873
:104EE00002D009280CD105E00320CE4948700220E9
:104EF000087006E00220CB4908700920487000E0E5
:104F000000BF00BFC7484078092805D1FFF7E3FD7F
:104F10000020C449487004E04FF4FA70FBF79DFA92
:104F200084E700BF10BD10B5FFF79AFD70B9FBF71D
:104F30007FFA01280AD1FEF7F3F90220FEF7F0F913
:104F40000320FEF7EDF90120FFF787FDFFF788FD4D
:104F5000012872D1B348407800BB0120FEF701FA66
:104F60000320FFF757F80320FFF764F8FFF752FD1F
:104F7000FFF7A1FD40F6B830FBF76FFA0220A94910
:104F800008700B20487041F28830886008468068BD
:104F90004860022048730846407B0873A148407867
:104FA0000B2823D141F288309E4988600220487343
:104FB0009F4802F05AF884B29CA221469C48FFF711
:104FC000D7FD052802D009280ED104E0022095491A
:104FD0004870087009E00220924908700920487062
:104FE0000320FEF7BEF900E000BF00BF8D48407807
:104FF000022825D141F288308A498860022048730E
:10500000894802F032F884B288A221468648FFF728
:10501000AFFD052802D0092810D105E00A208149FA
:105020004870022008700AE002207E4908700920BA
:1050300048700320FEF795F901E04BE000BF00BF88
:10504000784840780A2819D1FFF745FD4FF4FA60F7
:10505000FBF703FAFFF7DEFCFFF72DFD0420714993
:1050600008700120487043F69820886008468068E0
:105070004860012048730846407B087369484078BF
:1050800001281AD16BA200210846FFF771FD0528FF
:1050900002D009280FD107E0092062494870022098
:1050A0000870FEF75EF907E009205E4948700320AA
:1050B000FEF757F900E000BF00BF5A4840780928C2
:1050C00008D1FFF708FD0020564948708873012079
:1050D000FEF726F910BD10B501F0B5FE10BD10B5F4
:1050E000FFF7BEFC022876D14E484078D8B903209D
:1050F000FEF790FF0320FEF79DFFFFF78BFCFFF705
:10510000DAFC0420474908700120487043F69820D3
:105110008860084680684860012048730846407BE4
:105120000873FFF7EBFD3F484078012815D141A2F5
:1051300000210846FFF71CFD052802D009280AD1E6
:1051400005E00D20374948700220087004E009206E
:105150003449487000E000BF00BF324840780D2855
:1051600021D141F288302F498860012048733448AA
:1051700001F07BFF84B22DA221463148FFF7F8FCF5
:10518000052802D009280CD105E0042025494870E3
:105190000220087006E002202249087009204870A9
:1051A00000E000BF00BF1F484078042822D141F230
:1051B00088301C49886001204873224801F055FF5F
:1051C00084B21AA221461F48FFF7D2FC052803D05B
:1051D00009280DD106E08FE0052012494870022011
:1051E000087006E002200F4908700920487000E0AE
:1051F00000BF00BF0B484078052857D143F69820E0
:1052000008498860012048730F4801F02EFF84B2DE
:105210000EA221460C48FFF7ABFC05281AD009283E
:1052200042D13BE004050020CE0000204F4B00009F
:10523000E900002043616C6C2052656164790000D4
:105240003A010020F0000020FE000020434F4E4EA7
:105250004543540006202949487002200870032065
:10526000FEF7D8FE0320FEF7E5FE01202349487330
:105270000846407B087347F23050886008468068D3
:105280004860FFF728FF0123042208210320FCF7D0
:10529000D0FD08210320FFF7A7FB06E002201749F5
:1052A00008700920487000E000BF00BF1348407834
:1052B000062816D11148406858B9104880680F492F
:1052C00048600846007B002803DD0846007B401E3E
:1052D00008730A48007B10B9092008494870FFF795
:1052E00071FD06484078092806D1FFF7F4FB00203D
:1052F00002494870FFF7B1FB10BD00000405002013
:1053000000B587B04FF4166000904FF40070ADF810
:105310000600C000ADF8080005208DF80400EA483A
:105320000390FA20ADF81000E8480590FA20ADF897
:10533000180000208DF81A0069460120FEF735FBA1
:1053400007B000BD00B585B0A220ADF800004FF455
:105350000070ADF80400DE4804900820ADF80C00A1
:10536000684600F0FBFAFFF7CBFF05B000BD1CB5A7
:10537000044699220821684601F053FE0822611D67
:10538000684601F079FE48B92079062802D02079D4
:10539000082801D109201CBD0020FCE70822611D5E
:1053A000CB4801F069FE08B90A20F4E70020F2E7D3
:1053B0002DE9F04F87B004460C200690002700BF6F
:1053C000EBE0207907EB4701C24A32F8111088421E
:1053D0007ED1002601200090D4F80F804FF0000904
:1053E00007EB4700114601EB40000079ADF80400DF
:1053F00007EB470001EB40004088ADF80800BDF81E
:10540000080040F2064188420BD1BDF80400042890
:1054100003D198F80000009001E06020009008F1AE
:10542000010800250020ADF8060081467BE04FF022
:10543000000ABDF8080040F2064188421BD1BDF8C1
:1054400004000A280BD105EB850008EB400005900D
:10545000BDF80600401C80B2ADF806000DE009EB77
:10546000890008EB400005900599C81DFEF79BFEDA
:10547000ADF8060001E0CDF81480B4F80D00ADF8E9
:10548000100001A800F06AFA00F0FF0A06EB0A001B
:1054900086B2BDF8080040F2064188423ED1BDF810
:1054A00004000A283AD100220A210598FFF782FA5F
:1054B0008346BBF1000F05D1FF220A210598FFF7B3
:1054C00079FA8346BBF1000F05D0A6EB0A0000E095
:1054D00061E086B223E0681CC5B2142D1DD3D4F858
:1054E0000F000570701C86B205EB8500012101EBF1
:1054F0004000A4F80D0040F6B830774908802046F7
:1055000000F0BAFB00260025D4F80F0000F10108D6
:1055100071480088FAF7AAFF01E000BF00BF09F157
:10552000010000F0FF090098814580DB8EB3BDF8D3
:105530000400042816D10120A4F80D000020D4F89E
:105540000F100870D4F80F104870BDF80800B0F5BF
:10555000007F18D15E480168C4F805104068C4F89F
:10556000090010E0BDF804000A280CD1BDF80800BD
:1055700040F20641884204D1701C86B2D4F80F0074
:105580000570A4F80D60204600F076FB07B0BDE87A
:10559000F08FFFE700BF781CC7B206988742FFF67E
:1055A00010AF00BFF2E710B504462079182802DBDF
:1055B00020791E2802D12046FFF7FAFE10BD2DE902
:1055C000F04706460025A946A846B6F8028070882E
:1055D000FA2802DD0020BDE8F08774684CE02078EE
:1055E000662845D10E2221463C4801F0FAFC04F120
:1055F0000E003A49491EC1F80F00B1F80D200146CE
:105600005018FEF763FD3549491EA1F813000846FE
:10561000B0F80D1004F10E00084480782F49491E9F
:1056200048750846407D682821D14FF0000A084699
:10563000B0F80D000F3081B2601C00F005FB82460F
:10564000BAF1000F12D130782449491E087008467B
:10565000FFF78DFE07461FB12048401EFFF7A3FF4E
:1056600009F10B00284485B22C4405E000BF00BFBF
:10567000681C85B22C4400BF454503DAA8EB050041
:105680000E28ACDC0020A6E77CB5002401252846C6
:10569000FEF7B4FC044664B1ADF80240ADF800502A
:1056A000094801906846FFF78AFF2846FEF7B2FCDA
:1056B00000BF7CBD0848008820B107480088401E14
:1056C0000549088070470000140500200E060020E0
:1056D00053010020107800004C0100200907002031
:1056E00070B504460D461646324629462046FDF75B
:1056F000FCFCC0B270BD70B504460D46164632467D
:1057000029462046FDF7BFFCC0B270BD704700209F
:10571000FE4908707047FD48007870471CB5044684
:105720002088042836D12169481C206108788DF82A
:1057300005002169481C20610878F5490870216935
:10574000481C206108788DF804002169481C2061FC
:1057500008788DF803002169481C206108788DF8CD
:1057600002002169481C206108788DF80100216938
:10577000481C206108788DF800002169481C2061D0
:1057800008788DF806006846FDF7EFFE01287DD108
:1057900008201CBD2088A1282DD12169481C20612A
:1057A00008788DF800002169481C206108788DF880
:1057B00001002169481C206108788DF802002169E8
:1057C000481C206108788DF803002169481C20617D
:1057D000087800F01F008DF80400206900788DF82B
:1057E000050001208DF806006846FDF7BEFE012881
:1057F0006FD10720CDE720880A2836D16846FDF70B
:1058000014FF002865D09DF805102269501C206106
:105810001170BF4801782269501C206111709DF8F9
:1058200004102269501C206111709DF80310226938
:10583000501C206111709DF802102269501C2061DB
:1058400011709DF801102269501C206111709DF8A3
:1058500000102269501C206111709DF80610226909
:10586000501C20611170082093E72088A22830D1B5
:105870006846FDF7DAFE48B19DF800102269501C19
:10588000206111709DF80110226900E021E0501C98
:10589000206111709DF802102269501C2061117066
:1058A0009DF803102269501C206111709DF80410AE
:1058B0002269501C206111709DF805102269501C4E
:1058C0002061117020212269501C20611170072075
:1058D0005FE700205DE7014608880A2802D00888B3
:1058E000A22817D18B4A0869126802608A4A138875
:1058F0000869838092788271884A08691268C0F8C2
:105900000720874A13880869A0F80B309278427301
:105910000E2070470020FCE7014608880A2802D0C4
:105920000888A22805D17F4A08691268026004200D
:1059300070470020FCE710B5024600217A490F2489
:10594000002300BF4888904201D1084610BD1031A5
:105950005B1CA342F6D100210020F7E72DE9F047B8
:1059600004460025A58840F20D40854204D120461A
:10597000FFF7D4FEBDE8F08740F20F40854203D127
:105980002046FFF7A8FFF5E740F2FF40854203D12C
:105990002046FFF7C1FFEDE74FF20540854207D1F2
:1059A00020880A2804D1A220208041F205450DE07C
:1059B0004FF20640854209D120880A2806D1A2204C
:1059C0002080FF20A168087041F205452846FFF7B6
:1059D000B2FF0646002E73D00027B4F80C80B946FB
:1059E000F768307800B91BE0307802280BD1608866
:1059F000602801DC608808B90020BBE76088401E91
:105A00001FFA80F90CE03078042807D160886028FC
:105A100001DD0020AEE7B4F8029001E000BFFEE730
:105A2000B06800FB09772088042805D02088A128C9
:105A300002D02088BB282DD1B6F80680B5F5007FAE
:105A400006D13A4821690A680260496841600EE05F
:105A5000B5F5846F0BD1B9F1000F01D1002089E7B2
:105A600020690078FF2800D109374FF00908424625
:105A700038462169FFF734FE40F20240854205D0E6
:105A8000401C854202D0401C854278D101201F492C
:105A9000087074E020880A2802D02088A2286ED1DD
:105AA00020880A2815D1B6F8068040F205408542C4
:105AB00003D041F20540854203D14FF0010817E0C1
:105AC00060E0B5F5826F02D0B5F5846F10D100208B
:105AD00050E740F20540854203D041F2054085423F
